{
    "abi": [
        {
            "type": "constructor",
            "inputs": [],
            "stateMutability": "nonpayable"
        },
        {
            "type": "function",
            "name": "SCALING_FACTOR",
            "inputs": [],
            "outputs": [
                {
                    "name": "",
                    "type": "uint256",
                    "internalType": "uint256"
                }
            ],
            "stateMutability": "view"
        },
        {
            "type": "function",
            "name": "UPGRADE_INTERFACE_VERSION",
            "inputs": [],
            "outputs": [
                {
                    "name": "",
                    "type": "string",
                    "internalType": "string"
                }
            ],
            "stateMutability": "view"
        },
        {
            "type": "function",
            "name": "batchHubRecordIds",
            "inputs": [
                {
                    "name": "",
                    "type": "uint32",
                    "internalType": "uint32"
                },
                {
                    "name": "",
                    "type": "uint256",
                    "internalType": "uint256"
                }
            ],
            "outputs": [
                {
                    "name": "",
                    "type": "uint64",
                    "internalType": "uint64"
                }
            ],
            "stateMutability": "view"
        },
        {
            "type": "function",
            "name": "batchWithdrawal",
            "inputs": [],
            "outputs": [],
            "stateMutability": "nonpayable"
        },
        {
            "type": "function",
            "name": "batches",
            "inputs": [
                {
                    "name": "",
                    "type": "uint32",
                    "internalType": "uint32"
                }
            ],
            "outputs": [
                {
                    "name": "stakeAmount",
                    "type": "uint256",
                    "internalType": "uint256"
                },
                {
                    "name": "mintAmount",
                    "type": "uint256",
                    "internalType": "uint256"
                },
                {
                    "name": "unstakeAmount",
                    "type": "uint256",
                    "internalType": "uint256"
                },
                {
                    "name": "releasedAmount",
                    "type": "uint256",
                    "internalType": "uint256"
                },
                {
                    "name": "id",
                    "type": "uint32",
                    "internalType": "uint32"
                },
                {
                    "name": "status",
                    "type": "uint8",
                    "internalType": "enum BatchStatus"
                }
            ],
            "stateMutability": "view"
        },
        {
            "type": "function",
            "name": "config",
            "inputs": [],
            "outputs": [
                {
                    "name": "",
                    "type": "tuple",
                    "internalType": "struct Config",
                    "components": [
                        {
                            "name": "feeRate",
                            "type": "uint256",
                            "internalType": "uint256"
                        },
                        {
                            "name": "zkgm",
                            "type": "address",
                            "internalType": "address"
                        },
                        {
                            "name": "lsToken",
                            "type": "address",
                            "internalType": "address"
                        },
                        {
                            "name": "baseToken",
                            "type": "address",
                            "internalType": "address"
                        },
                        {
                            "name": "feeReceiver",
                            "type": "address",
                            "internalType": "address"
                        },
                        {
                            "name": "baseTokenSymbol",
                            "type": "string",
                            "internalType": "string"
                        },
                        {
                            "name": "baseTokenName",
                            "type": "string",
                            "internalType": "string"
                        },
                        {
                            "name": "unionSolverAddress",
                            "type": "string",
                            "internalType": "string"
                        },
                        {
                            "name": "unionLstContractAddress",
                            "type": "string",
                            "internalType": "string"
                        },
                        {
                            "name": "unionChannelId",
                            "type": "uint32",
                            "internalType": "uint32"
                        }
                    ]
                }
            ],
            "stateMutability": "view"
        },
        {
            "type": "function",
            "name": "exchangeRate",
            "inputs": [
                {
                    "name": "",
                    "type": "uint64",
                    "internalType": "uint64"
                }
            ],
            "outputs": [
                {
                    "name": "",
                    "type": "uint256",
                    "internalType": "uint256"
                }
            ],
            "stateMutability": "view"
        },
        {
            "type": "function",
            "name": "getBatch",
            "inputs": [
                {
                    "name": "id",
                    "type": "uint32",
                    "internalType": "uint32"
                }
            ],
            "outputs": [
                {
                    "name": "",
                    "type": "tuple",
                    "internalType": "struct HubBatch",
                    "components": [
                        {
                            "name": "stakeAmount",
                            "type": "uint256",
                            "internalType": "uint256"
                        },
                        {
                            "name": "mintAmount",
                            "type": "uint256",
                            "internalType": "uint256"
                        },
                        {
                            "name": "unstakeAmount",
                            "type": "uint256",
                            "internalType": "uint256"
                        },
                        {
                            "name": "releasedAmount",
                            "type": "uint256",
                            "internalType": "uint256"
                        },
                        {
                            "name": "id",
                            "type": "uint32",
                            "internalType": "uint32"
                        },
                        {
                            "name": "status",
                            "type": "uint8",
                            "internalType": "enum BatchStatus"
                        }
                    ]
                }
            ],
            "stateMutability": "view"
        },
        {
            "type": "function",
            "name": "getCurrentBatchId",
            "inputs": [],
            "outputs": [
                {
                    "name": "",
                    "type": "uint32",
                    "internalType": "uint32"
                }
            ],
            "stateMutability": "view"
        },
        {
            "type": "function",
            "name": "getExchangeRate",
            "inputs": [],
            "outputs": [
                {
                    "name": "",
                    "type": "uint256",
                    "internalType": "uint256"
                }
            ],
            "stateMutability": "view"
        },
        {
            "type": "function",
            "name": "getHubBatchesFromIds",
            "inputs": [
                {
                    "name": "hubBatchIds",
                    "type": "uint32[]",
                    "internalType": "uint32[]"
                }
            ],
            "outputs": [
                {
                    "name": "",
                    "type": "tuple[]",
                    "internalType": "struct HubBatch[]",
                    "components": [
                        {
                            "name": "stakeAmount",
                            "type": "uint256",
                            "internalType": "uint256"
                        },
                        {
                            "name": "mintAmount",
                            "type": "uint256",
                            "internalType": "uint256"
                        },
                        {
                            "name": "unstakeAmount",
                            "type": "uint256",
                            "internalType": "uint256"
                        },
                        {
                            "name": "releasedAmount",
                            "type": "uint256",
                            "internalType": "uint256"
                        },
                        {
                            "name": "id",
                            "type": "uint32",
                            "internalType": "uint32"
                        },
                        {
                            "name": "status",
                            "type": "uint8",
                            "internalType": "enum BatchStatus"
                        }
                    ]
                }
            ],
            "stateMutability": "view"
        },
        {
            "type": "function",
            "name": "getHubRecordsBatch",
            "inputs": [
                {
                    "name": "id",
                    "type": "uint32",
                    "internalType": "uint32"
                }
            ],
            "outputs": [
                {
                    "name": "",
                    "type": "uint64[]",
                    "internalType": "uint64[]"
                }
            ],
            "stateMutability": "view"
        },
        {
            "type": "function",
            "name": "getHubRecordsFromBatchId",
            "inputs": [
                {
                    "name": "batchId",
                    "type": "uint32",
                    "internalType": "uint32"
                }
            ],
            "outputs": [
                {
                    "name": "",
                    "type": "tuple[]",
                    "internalType": "struct HubRecord[]",
                    "components": [
                        {
                            "name": "recordType",
                            "type": "uint8",
                            "internalType": "enum RecordType"
                        },
                        {
                            "name": "batchId",
                            "type": "uint32",
                            "internalType": "uint32"
                        },
                        {
                            "name": "id",
                            "type": "uint64",
                            "internalType": "uint64"
                        },
                        {
                            "name": "recipientChannelId",
                            "type": "uint32",
                            "internalType": "uint32"
                        },
                        {
                            "name": "stakeAmount",
                            "type": "uint256",
                            "internalType": "uint256"
                        },
                        {
                            "name": "mintAmount",
                            "type": "uint256",
                            "internalType": "uint256"
                        },
                        {
                            "name": "unstakeAmount",
                            "type": "uint256",
                            "internalType": "uint256"
                        },
                        {
                            "name": "releasedAmount",
                            "type": "uint256",
                            "internalType": "uint256"
                        },
                        {
                            "name": "exchangeRate",
                            "type": "uint256",
                            "internalType": "uint256"
                        },
                        {
                            "name": "timestamp",
                            "type": "uint64",
                            "internalType": "uint64"
                        },
                        {
                            "name": "sender",
                            "type": "bytes",
                            "internalType": "bytes"
                        },
                        {
                            "name": "staker",
                            "type": "bytes",
                            "internalType": "bytes"
                        },
                        {
                            "name": "recipient",
                            "type": "bytes",
                            "internalType": "bytes"
                        }
                    ]
                }
            ],
            "stateMutability": "view"
        },
        {
            "type": "function",
            "name": "getLog",
            "inputs": [],
            "outputs": [
                {
                    "name": "",
                    "type": "string",
                    "internalType": "string"
                }
            ],
            "stateMutability": "view"
        },
        {
            "type": "function",
            "name": "getVersion",
            "inputs": [],
            "outputs": [
                {
                    "name": "",
                    "type": "uint16",
                    "internalType": "uint16"
                }
            ],
            "stateMutability": "pure"
        },
        {
            "type": "function",
            "name": "hubRecords",
            "inputs": [
                {
                    "name": "",
                    "type": "uint64",
                    "internalType": "uint64"
                }
            ],
            "outputs": [
                {
                    "name": "recordType",
                    "type": "uint8",
                    "internalType": "enum RecordType"
                },
                {
                    "name": "batchId",
                    "type": "uint32",
                    "internalType": "uint32"
                },
                {
                    "name": "id",
                    "type": "uint64",
                    "internalType": "uint64"
                },
                {
                    "name": "recipientChannelId",
                    "type": "uint32",
                    "internalType": "uint32"
                },
                {
                    "name": "stakeAmount",
                    "type": "uint256",
                    "internalType": "uint256"
                },
                {
                    "name": "mintAmount",
                    "type": "uint256",
                    "internalType": "uint256"
                },
                {
                    "name": "unstakeAmount",
                    "type": "uint256",
                    "internalType": "uint256"
                },
                {
                    "name": "releasedAmount",
                    "type": "uint256",
                    "internalType": "uint256"
                },
                {
                    "name": "exchangeRate",
                    "type": "uint256",
                    "internalType": "uint256"
                },
                {
                    "name": "timestamp",
                    "type": "uint64",
                    "internalType": "uint64"
                },
                {
                    "name": "sender",
                    "type": "bytes",
                    "internalType": "bytes"
                },
                {
                    "name": "staker",
                    "type": "bytes",
                    "internalType": "bytes"
                },
                {
                    "name": "recipient",
                    "type": "bytes",
                    "internalType": "bytes"
                }
            ],
            "stateMutability": "view"
        },
        {
            "type": "function",
            "name": "initialize",
            "inputs": [
                {
                    "name": "payload",
                    "type": "tuple",
                    "internalType": "struct InitializePayload",
                    "components": [
                        {
                            "name": "feeRate",
                            "type": "uint256",
                            "internalType": "uint256"
                        },
                        {
                            "name": "owner",
                            "type": "address",
                            "internalType": "address"
                        },
                        {
                            "name": "baseToken",
                            "type": "address",
                            "internalType": "address"
                        },
                        {
                            "name": "lsToken",
                            "type": "address",
                            "internalType": "address"
                        },
                        {
                            "name": "zkgm",
                            "type": "address",
                            "internalType": "address"
                        },
                        {
                            "name": "unionLstContractAddress",
                            "type": "string",
                            "internalType": "string"
                        },
                        {
                            "name": "unionSolverAddress",
                            "type": "string",
                            "internalType": "string"
                        },
                        {
                            "name": "baseTokenSymbol",
                            "type": "string",
                            "internalType": "string"
                        },
                        {
                            "name": "baseTokenName",
                            "type": "string",
                            "internalType": "string"
                        },
                        {
                            "name": "quoteToken",
                            "type": "bytes",
                            "internalType": "bytes"
                        },
                        {
                            "name": "feeReceiver",
                            "type": "address",
                            "internalType": "address"
                        },
                        {
                            "name": "unionChannelId",
                            "type": "uint32",
                            "internalType": "uint32"
                        }
                    ]
                }
            ],
            "outputs": [],
            "stateMutability": "nonpayable"
        },
        {
            "type": "function",
            "name": "isTestMode",
            "inputs": [],
            "outputs": [
                {
                    "name": "",
                    "type": "bool",
                    "internalType": "bool"
                }
            ],
            "stateMutability": "view"
        },
        {
            "type": "function",
            "name": "onIntentZkgm",
            "inputs": [
                {
                    "name": "caller",
                    "type": "address",
                    "internalType": "address"
                },
                {
                    "name": "path",
                    "type": "uint256",
                    "internalType": "uint256"
                },
                {
                    "name": "sourceChannelId",
                    "type": "uint32",
                    "internalType": "uint32"
                },
                {
                    "name": "destinationChannelId",
                    "type": "uint32",
                    "internalType": "uint32"
                },
                {
                    "name": "sender",
                    "type": "bytes",
                    "internalType": "bytes"
                },
                {
                    "name": "message",
                    "type": "bytes",
                    "internalType": "bytes"
                },
                {
                    "name": "relayer",
                    "type": "address",
                    "internalType": "address"
                },
                {
                    "name": "relayerMsg",
                    "type": "bytes",
                    "internalType": "bytes"
                }
            ],
            "outputs": [],
            "stateMutability": "nonpayable"
        },
        {
            "type": "function",
            "name": "onZkgm",
            "inputs": [
                {
                    "name": "_caller",
                    "type": "address",
                    "internalType": "address"
                },
                {
                    "name": "path",
                    "type": "uint256",
                    "internalType": "uint256"
                },
                {
                    "name": "sourceChannelId",
                    "type": "uint32",
                    "internalType": "uint32"
                },
                {
                    "name": "destinationChannelId",
                    "type": "uint32",
                    "internalType": "uint32"
                },
                {
                    "name": "sender",
                    "type": "bytes",
                    "internalType": "bytes"
                },
                {
                    "name": "message",
                    "type": "bytes",
                    "internalType": "bytes"
                },
                {
                    "name": "_relayer",
                    "type": "address",
                    "internalType": "address"
                },
                {
                    "name": "relayerMsg",
                    "type": "bytes",
                    "internalType": "bytes"
                }
            ],
            "outputs": [],
            "stateMutability": "nonpayable"
        },
        {
            "type": "function",
            "name": "owner",
            "inputs": [],
            "outputs": [
                {
                    "name": "",
                    "type": "address",
                    "internalType": "address"
                }
            ],
            "stateMutability": "view"
        },
        {
            "type": "function",
            "name": "pauseToggle",
            "inputs": [],
            "outputs": [],
            "stateMutability": "nonpayable"
        },
        {
            "type": "function",
            "name": "paused",
            "inputs": [],
            "outputs": [
                {
                    "name": "",
                    "type": "bool",
                    "internalType": "bool"
                }
            ],
            "stateMutability": "view"
        },
        {
            "type": "function",
            "name": "proxiableUUID",
            "inputs": [],
            "outputs": [
                {
                    "name": "",
                    "type": "bytes32",
                    "internalType": "bytes32"
                }
            ],
            "stateMutability": "view"
        },
        {
            "type": "function",
            "name": "renounceOwnership",
            "inputs": [],
            "outputs": [],
            "stateMutability": "nonpayable"
        },
        {
            "type": "function",
            "name": "setExchangeRate",
            "inputs": [
                {
                    "name": "_rate",
                    "type": "uint256",
                    "internalType": "uint256"
                }
            ],
            "outputs": [],
            "stateMutability": "nonpayable"
        },
        {
            "type": "function",
            "name": "stake",
            "inputs": [
                {
                    "name": "_amount",
                    "type": "uint256",
                    "internalType": "uint256"
                },
                {
                    "name": "recipient",
                    "type": "bytes",
                    "internalType": "bytes"
                },
                {
                    "name": "recipientChannelId",
                    "type": "uint32",
                    "internalType": "uint32"
                }
            ],
            "outputs": [
                {
                    "name": "",
                    "type": "uint64",
                    "internalType": "uint64"
                }
            ],
            "stateMutability": "nonpayable"
        },
        {
            "type": "function",
            "name": "transfer",
            "inputs": [
                {
                    "name": "_amount",
                    "type": "uint256",
                    "internalType": "uint256"
                },
                {
                    "name": "_salt",
                    "type": "bytes32",
                    "internalType": "bytes32"
                },
                {
                    "name": "_receiver",
                    "type": "string",
                    "internalType": "string"
                }
            ],
            "outputs": [],
            "stateMutability": "nonpayable"
        },
        {
            "type": "function",
            "name": "transferAndCall",
            "inputs": [
                {
                    "name": "_amount",
                    "type": "uint256",
                    "internalType": "uint256"
                },
                {
                    "name": "_salt",
                    "type": "bytes32",
                    "internalType": "bytes32"
                }
            ],
            "outputs": [],
            "stateMutability": "nonpayable"
        },
        {
            "type": "function",
            "name": "transferOwnership",
            "inputs": [
                {
                    "name": "newOwner",
                    "type": "address",
                    "internalType": "address"
                }
            ],
            "outputs": [],
            "stateMutability": "nonpayable"
        },
        {
            "type": "function",
            "name": "ucs03Channels",
            "inputs": [
                {
                    "name": "",
                    "type": "uint32",
                    "internalType": "uint32"
                }
            ],
            "outputs": [
                {
                    "name": "quoteToken",
                    "type": "bytes",
                    "internalType": "bytes"
                },
                {
                    "name": "lstQuoteToken",
                    "type": "bytes",
                    "internalType": "bytes"
                },
                {
                    "name": "channelId",
                    "type": "uint32",
                    "internalType": "uint32"
                }
            ],
            "stateMutability": "view"
        },
        {
            "type": "function",
            "name": "unbondingBatches",
            "inputs": [
                {
                    "name": "",
                    "type": "uint32",
                    "internalType": "uint32"
                }
            ],
            "outputs": [
                {
                    "name": "unstakeAmount",
                    "type": "uint256",
                    "internalType": "uint256"
                },
                {
                    "name": "exchangeRate",
                    "type": "uint256",
                    "internalType": "uint256"
                },
                {
                    "name": "undelegateAmount",
                    "type": "uint256",
                    "internalType": "uint256"
                },
                {
                    "name": "receivedAmount",
                    "type": "uint256",
                    "internalType": "uint256"
                },
                {
                    "name": "status",
                    "type": "uint8",
                    "internalType": "enum UnbondingBatchStatus"
                },
                {
                    "name": "id",
                    "type": "uint32",
                    "internalType": "uint32"
                }
            ],
            "stateMutability": "view"
        },
        {
            "type": "function",
            "name": "unbondingHubBatchIds",
            "inputs": [
                {
                    "name": "",
                    "type": "uint32",
                    "internalType": "uint32"
                },
                {
                    "name": "",
                    "type": "uint256",
                    "internalType": "uint256"
                }
            ],
            "outputs": [
                {
                    "name": "",
                    "type": "uint32",
                    "internalType": "uint32"
                }
            ],
            "stateMutability": "view"
        },
        {
            "type": "function",
            "name": "unstake",
            "inputs": [
                {
                    "name": "_amount",
                    "type": "uint256",
                    "internalType": "uint256"
                },
                {
                    "name": "recipient",
                    "type": "bytes",
                    "internalType": "bytes"
                },
                {
                    "name": "recipientChannelId",
                    "type": "uint32",
                    "internalType": "uint32"
                }
            ],
            "outputs": [
                {
                    "name": "",
                    "type": "uint64",
                    "internalType": "uint64"
                }
            ],
            "stateMutability": "nonpayable"
        },
        {
            "type": "function",
            "name": "upgradeToAndCall",
            "inputs": [
                {
                    "name": "newImplementation",
                    "type": "address",
                    "internalType": "address"
                },
                {
                    "name": "data",
                    "type": "bytes",
                    "internalType": "bytes"
                }
            ],
            "outputs": [],
            "stateMutability": "payable"
        },
        {
            "type": "event",
            "name": "ExchangeRateUpdated",
            "inputs": [
                {
                    "name": "id",
                    "type": "uint32",
                    "indexed": true,
                    "internalType": "uint32"
                },
                {
                    "name": "action",
                    "type": "string",
                    "indexed": true,
                    "internalType": "string"
                },
                {
                    "name": "rate",
                    "type": "uint256",
                    "indexed": false,
                    "internalType": "uint256"
                }
            ],
            "anonymous": false
        },
        {
            "type": "event",
            "name": "HubStake",
            "inputs": [
                {
                    "name": "id",
                    "type": "uint64",
                    "indexed": true,
                    "internalType": "uint64"
                },
                {
                    "name": "batchId",
                    "type": "uint32",
                    "indexed": true,
                    "internalType": "uint32"
                },
                {
                    "name": "recipientChannelId",
                    "type": "uint32",
                    "indexed": false,
                    "internalType": "uint32"
                },
                {
                    "name": "stakeAmount",
                    "type": "uint256",
                    "indexed": false,
                    "internalType": "uint256"
                },
                {
                    "name": "mintAmount",
                    "type": "uint256",
                    "indexed": false,
                    "internalType": "uint256"
                },
                {
                    "name": "exchangeRate",
                    "type": "uint256",
                    "indexed": false,
                    "internalType": "uint256"
                },
                {
                    "name": "timestamp",
                    "type": "uint64",
                    "indexed": false,
                    "internalType": "uint64"
                },
                {
                    "name": "sender",
                    "type": "string",
                    "indexed": false,
                    "internalType": "string"
                },
                {
                    "name": "staker",
                    "type": "string",
                    "indexed": true,
                    "internalType": "string"
                },
                {
                    "name": "recipient",
                    "type": "string",
                    "indexed": false,
                    "internalType": "string"
                }
            ],
            "anonymous": false
        },
        {
            "type": "event",
            "name": "HubUnstake",
            "inputs": [
                {
                    "name": "id",
                    "type": "uint64",
                    "indexed": true,
                    "internalType": "uint64"
                },
                {
                    "name": "batchId",
                    "type": "uint32",
                    "indexed": true,
                    "internalType": "uint32"
                },
                {
                    "name": "recipientChannelId",
                    "type": "uint32",
                    "indexed": false,
                    "internalType": "uint32"
                },
                {
                    "name": "unstakeAmount",
                    "type": "uint256",
                    "indexed": false,
                    "internalType": "uint256"
                },
                {
                    "name": "exchangeRate",
                    "type": "uint256",
                    "indexed": false,
                    "internalType": "uint256"
                },
                {
                    "name": "timestamp",
                    "type": "uint64",
                    "indexed": false,
                    "internalType": "uint64"
                },
                {
                    "name": "sender",
                    "type": "string",
                    "indexed": false,
                    "internalType": "string"
                },
                {
                    "name": "staker",
                    "type": "string",
                    "indexed": true,
                    "internalType": "string"
                },
                {
                    "name": "recipient",
                    "type": "string",
                    "indexed": false,
                    "internalType": "string"
                }
            ],
            "anonymous": false
        },
        {
            "type": "event",
            "name": "Initialized",
            "inputs": [
                {
                    "name": "version",
                    "type": "uint64",
                    "indexed": false,
                    "internalType": "uint64"
                }
            ],
            "anonymous": false
        },
        {
            "type": "event",
            "name": "OwnershipTransferred",
            "inputs": [
                {
                    "name": "previousOwner",
                    "type": "address",
                    "indexed": true,
                    "internalType": "address"
                },
                {
                    "name": "newOwner",
                    "type": "address",
                    "indexed": true,
                    "internalType": "address"
                }
            ],
            "anonymous": false
        },
        {
            "type": "event",
            "name": "Paused",
            "inputs": [
                {
                    "name": "account",
                    "type": "address",
                    "indexed": false,
                    "internalType": "address"
                }
            ],
            "anonymous": false
        },
        {
            "type": "event",
            "name": "Unpaused",
            "inputs": [
                {
                    "name": "account",
                    "type": "address",
                    "indexed": false,
                    "internalType": "address"
                }
            ],
            "anonymous": false
        },
        {
            "type": "event",
            "name": "Upgraded",
            "inputs": [
                {
                    "name": "implementation",
                    "type": "address",
                    "indexed": true,
                    "internalType": "address"
                }
            ],
            "anonymous": false
        },
        {
            "type": "event",
            "name": "ZkgmMessageReceived",
            "inputs": [
                {
                    "name": "path",
                    "type": "uint256",
                    "indexed": false,
                    "internalType": "uint256"
                },
                {
                    "name": "sourceChannelId",
                    "type": "uint32",
                    "indexed": false,
                    "internalType": "uint32"
                },
                {
                    "name": "destinationChannelId",
                    "type": "uint32",
                    "indexed": false,
                    "internalType": "uint32"
                },
                {
                    "name": "sender",
                    "type": "string",
                    "indexed": false,
                    "internalType": "string"
                },
                {
                    "name": "payload",
                    "type": "string",
                    "indexed": false,
                    "internalType": "string"
                }
            ],
            "anonymous": false
        },
        {
            "type": "error",
            "name": "AddressEmptyCode",
            "inputs": [
                {
                    "name": "target",
                    "type": "address",
                    "internalType": "address"
                }
            ]
        },
        {
            "type": "error",
            "name": "ERC1967InvalidImplementation",
            "inputs": [
                {
                    "name": "implementation",
                    "type": "address",
                    "internalType": "address"
                }
            ]
        },
        {
            "type": "error",
            "name": "ERC1967NonPayable",
            "inputs": []
        },
        {
            "type": "error",
            "name": "EnforcedPause",
            "inputs": []
        },
        {
            "type": "error",
            "name": "ErrUnauthorized",
            "inputs": []
        },
        {
            "type": "error",
            "name": "ExpectedPause",
            "inputs": []
        },
        {
            "type": "error",
            "name": "FailedCall",
            "inputs": []
        },
        {
            "type": "error",
            "name": "InvalidInitialization",
            "inputs": []
        },
        {
            "type": "error",
            "name": "NotInitializing",
            "inputs": []
        },
        {
            "type": "error",
            "name": "OwnableInvalidOwner",
            "inputs": [
                {
                    "name": "owner",
                    "type": "address",
                    "internalType": "address"
                }
            ]
        },
        {
            "type": "error",
            "name": "OwnableUnauthorizedAccount",
            "inputs": [
                {
                    "name": "account",
                    "type": "address",
                    "internalType": "address"
                }
            ]
        },
        {
            "type": "error",
            "name": "ReentrancyGuardReentrantCall",
            "inputs": []
        },
        {
            "type": "error",
            "name": "StringsInsufficientHexLength",
            "inputs": [
                {
                    "name": "value",
                    "type": "uint256",
                    "internalType": "uint256"
                },
                {
                    "name": "length",
                    "type": "uint256",
                    "internalType": "uint256"
                }
            ]
        },
        {
            "type": "error",
            "name": "UUPSUnauthorizedCallContext",
            "inputs": []
        },
        {
            "type": "error",
            "name": "UUPSUnsupportedProxiableUUID",
            "inputs": [
                {
                    "name": "slot",
                    "type": "bytes32",
                    "internalType": "bytes32"
                }
            ]
        }
    ],
    "bytecode": {
        "object": "0x60a060405230608052348015610013575f5ffd5b5061001c610021565b6100d3565b7ff0c57e16840df040f15088dc2f81fe391c3923bec73e23a9662efc9c229c6a00805468010000000000000000900460ff16156100715760405163f92ee8a960e01b815260040160405180910390fd5b80546001600160401b03908116146100d05780546001600160401b0319166001600160401b0390811782556040519081527fc7f505b2f371ae2175ee4913f4499e1f2633a7b5936321eed1cdaeb6115181d29060200160405180910390a15b50565b608051615c0f6100f95f395f8181613c7401528181613c9d0152613de10152615c0f5ff3fe6080604052600436106101fc575f3560e01c80638c81dd7611610113578063db068e0e1161009d578063e8dc2be51161006d578063e8dc2be5146106ed578063ef4cadc51461070c578063efe9260f14610727578063f2fde38b14610753578063fe9a3f5f14610772575f5ffd5b8063db068e0e14610656578063dd63a59414610675578063e6aa216c146106a1578063e720ac8e146106cc575f5ffd5b80639d2eceb2116100e35780639d2eceb214610575578063ab33bd0b146105a1578063ad3cb1cc146105cc578063ae8bd984146105fc578063d7e1644c14610628575f5ffd5b80638c81dd76146104db5780638da5cb5b146104fa5780638dc3236014610540578063909e4ab614610554575f5ffd5b80634b4f37cd1161019457806360efe48c1161016457806360efe48c1461045d578063715018a61461047357806379502c5514610487578063834307d9146104a8578063856ea969146104bc575f5ffd5b80634b4f37cd146103da5780634f1ef286146103f957806352d1902d1461040c5780635c975abb1461042e575f5ffd5b8063351e131c116101cf578063351e131c146102e3578063381ac293146103175780633fef78cb1461034e578063495f23de146103bb575f5ffd5b80630bf1e375146102005780630d8e6e2c146102215780630fae3c5214610241578063114771b214610279575b5f5ffd5b34801561020b575f5ffd5b5061021f61021a3660046148f9565b610791565b005b34801561022c575f5ffd5b50604051600181526020015b60405180910390f35b34801561024c575f5ffd5b5061026061025b3660046149f7565b610eff565b6040516102389d9c9b9a99989796959493929190614a68565b348015610284575f5ffd5b506102d1610293366004614b23565b600e6020525f9081526040902080546001820154600283015460038401546004909401549293919290919060ff811690610100900463ffffffff1686565b60405161023896959493929190614b3e565b3480156102ee575f5ffd5b506103026102fd366004614b87565b611111565b60405163ffffffff9091168152602001610238565b348015610322575f5ffd5b50610336610331366004614bb1565b611155565b6040516001600160401b039091168152602001610238565b348015610359575f5ffd5b506103a9610368366004614b23565b600d6020525f9081526040902080546001820154600283015460038401546004909401549293919290919063ffffffff811690640100000000900460ff1686565b60405161023896959493929190614c1b565b3480156103c6575f5ffd5b506103366103d5366004614b87565b6115d1565b3480156103e5575f5ffd5b506103366103f4366004614bb1565b611618565b61021f610407366004614ce2565b611b31565b348015610417575f5ffd5b50610420611b50565b604051908152602001610238565b348015610439575f5ffd5b505f516020615b9a5f395f51905f525460ff165b6040519015158152602001610238565b348015610468575f5ffd5b5046617a691461044d565b34801561047e575f5ffd5b5061021f611b6b565b348015610492575f5ffd5b5061049b611b7e565b6040516102389190614d6c565b3480156104b3575f5ffd5b5061021f611e6e565b3480156104c7575f5ffd5b5061021f6104d6366004614e65565b611e9d565b3480156104e6575f5ffd5b5061021f6104f53660046148f9565b611ff0565b348015610505575f5ffd5b507f9016d09d72d40fdae2fd8ceac6b6234c7706214fd39c1cd1e609a0528c199300546040516001600160a01b039091168152602001610238565b34801561054b575f5ffd5b5061021f612041565b34801561055f575f5ffd5b50610568612778565b6040516102389190614eb3565b348015610580575f5ffd5b5061059461058f366004614b23565b612808565b6040516102389190614ec5565b3480156105ac575f5ffd5b506104206105bb3660046149f7565b600b6020525f908152604090205481565b3480156105d7575f5ffd5b50610568604051806040016040528060058152602001640352e302e360dc1b81525081565b348015610607575f5ffd5b5061061b610616366004614b23565b612c43565b604051610238919061501e565b348015610633575f5ffd5b50610647610642366004614b23565b612cda565b60405161023893929190615069565b348015610661575f5ffd5b5061021f6106703660046150a4565b612e0d565b348015610680575f5ffd5b5061069461068f3660046150bb565b612e44565b60405161023891906151a6565b3480156106ac575f5ffd5b506012546001600160401b03165f908152600b6020526040902054610420565b3480156106d7575f5ffd5b50601154600160801b900463ffffffff16610302565b3480156106f8575f5ffd5b5061021f6107073660046151e8565b612f7e565b348015610717575f5ffd5b50610420670de0b6b3a764000081565b348015610732575f5ffd5b50610746610741366004614b23565b61311c565b6040516102389190615208565b34801561075e575f5ffd5b5061021f61076d366004615216565b6131b6565b34801561077d575f5ffd5b5061021f61078c36600461522f565b6131f3565b61079961383e565b6107a1613875565b6001546001600160a01b031633146107ec5760405162461bcd60e51b81526020600482015260096024820152684f6e6c79207a6b676d60b81b60448201526064015b60405180910390fd5b6040516107fe9060089060200161529e565b60405160208183030381529060405280519060200120878760405160200161082792919061530f565b604051602081830303815290604052805190602001201461088a5760405162461bcd60e51b815260206004820152601a60248201527f4f6e6c79206c737420636f6e74726163742063616e2063616c6c00000000000060448201526064016107e3565b60405163e5c5e9a360e01b81525f9073__$f199205d1aa6c8e0e27d1f2cac7a8250ba$__9063e5c5e9a3906108c5908990899060040161531e565b5f60405180830381865af41580156108df573d5f5f3e3d5ffd5b505050506040513d5f823e601f3d908101601f191682016040526109069190810190615362565b90505f88888080601f0160208091040260200160405190810160405280939291908181526020018383808284375f92018290525086516020880151959650909490935061095b925063ffffffff1690506138a5565b61096885604001516138a5565b61097586606001516138a5565b61098b87608001516001600160401b03166138a5565b60405160200161099f959493929190615454565b60408051808303601f190181528282526060860151426001600160401b03165f818152600b60205293909320556013805467ffffffffffffffff60401b1916600160401b9093029290921790915584519092506109fb91615513565b6040518091039020836020015163ffffffff167f03db7c037e8ac1f0bc062a1fe4c5675e03e028f63ad7f832c628b8626044d46a8560600151604051610a4391815260200190565b60405180910390a36014610a578282615569565b507f8e04be3b8ae8acdae296b11371932fee09434fa18cef9e77e2ec18d866ee74a98d8d8d8585604051610a8f959493929190615623565b60405180910390a160808301516001600160401b031615610adb576080830151601180546001600160401b03909216600160401b0267ffffffffffffffff60401b199092169190911790555b6040518060400160405280600d81526020016c6875625f62617463685f61636b60981b815250604051602001610b119190615513565b60408051601f1981840301815290829052805160209182012085519092610b389201615513565b6040516020818303038152906040528051906020012003610bc357600160208481015163ffffffff165f908152600d9091526040902060040154640100000000900460ff166003811115610b8e57610b8e614a12565b03610bc35760208381015163ffffffff165f908152600d90915260409020600401805464ff0000000019166402000000001790555b6040518060400160405280601781526020017f6875625f62617463685f756e626f6e64696e675f61636b000000000000000000815250604051602001610c099190615513565b60408051601f1981840301815290829052805160209182012085519092610c309201615513565b6040516020818303038152906040528051906020012003610cc257600160208085015163ffffffff165f908152600e909152604090206004015460ff166005811115610c7e57610c7e614a12565b03610cc2576020838101805163ffffffff9081165f908152600e9093526040808420600401805460ff19166002179055606087015192519091168352909120600101555b6040518060400160405280601c81526020017f6875625f62617463685f756e626f6e64696e675f726563656976656400000000815250604051602001610d089190615513565b60408051601f1981840301815290829052805160209182012085519092610d2f9201615513565b6040516020818303038152906040528051906020012003610dc357600260208085015163ffffffff165f908152600e909152604090206004015460ff166005811115610d7d57610d7d614a12565b03610dc3576020838101805163ffffffff9081165f908152600e9093526040808420600401805460ff191660039081179091558188015193519092168452909220909101555b6040518060400160405280601c81526020017f6875625f62617463685f756e626f6e64696e675f72656c656173656400000000815250604051602001610e099190615513565b60408051601f1981840301815290829052805160209182012085519092610e309201615513565b6040516020818303038152906040528051906020012003610ed957600260208085015163ffffffff165f908152600e909152604090206004015460ff166005811115610e7e57610e7e614a12565b03610ed95760208084015163ffffffff165f908152600e909152604090206004908101805460ff1916600183021790555060208301516011805463ffffffff909216600160c01b0263ffffffff60c01b199092169190911790555b505050610ef260015f516020615bba5f395f51905f5255565b5050505050505050505050565b600c6020525f90815260409020805460018201546002830154600384015460048501546005860154600687015460078801805460ff89169963ffffffff6101008b0481169a6001600160401b03600160281b820481169b600160681b9092049092169990989097909690959094911692610f7890615266565b80601f0160208091040260200160405190810160405280929190818152602001828054610fa490615266565b8015610fef5780601f10610fc657610100808354040283529160200191610fef565b820191905f5260205f20905b815481529060010190602001808311610fd257829003601f168201915b50505050509080600801805461100490615266565b80601f016020809104026020016040519081016040528092919081815260200182805461103090615266565b801561107b5780601f106110525761010080835404028352916020019161107b565b820191905f5260205f20905b81548152906001019060200180831161105e57829003601f168201915b50505050509080600901805461109090615266565b80601f01602080910402602001604051908101604052809291908181526020018280546110bc90615266565b80156111075780601f106110de57610100808354040283529160200191611107565b820191905f5260205f20905b8154815290600101906020018083116110ea57829003601f168201915b505050505090508d565b6010602052815f5260405f20818154811061112a575f80fd5b905f5260205f209060089182820401919006600402915091509054906101000a900463ffffffff1681565b5f61115e61383e565b611166613875565b5f611172336014613948565b90505f604051806101a0016040528060018081111561119357611193614a12565b8152602001601160109054906101000a900463ffffffff1663ffffffff16815260200160115f9054906101000a90046001600160401b03166001600160401b031681526020018563ffffffff1681526020015f81526020015f81526020018881526020015f81526020015f8152602001426001600160401b03168152602001336040516020016112239190615671565b6040516020818303038152906040528152602001336040516020016112489190615671565b604051602081830303815290604052815260200187878080601f0160208091040260200160405190810160405280939291908181526020018383808284375f9201829052509390945250506011546001600160401b03168152600c6020526040902082518154939450849391925090829060ff1916600183818111156112d0576112d0614a12565b021790555060208201518154604084015160608501516cffffffffffffffffffffffff001990921661010063ffffffff94851681026cffffffffffffffff0000000000191691909117600160281b6001600160401b03938416021763ffffffff60681b1916600160681b94909316939093029190911783556080840151600184015560a0840151600284015560c0840151600384015560e0840151600484015590830151600583015561012083015160068301805467ffffffffffffffff19169190921617905561014082015160078201906113ac9082615569565b5061016082015160088201906113c29082615569565b5061018082015160098201906113d89082615569565b5050601180546001600160401b031691505f6113f38361569d565b82546001600160401b039182166101009390930a92830291909202199091161790555060115463ffffffff600160801b909104165f908152600d6020526040812060028101805491928a926114499084906156c7565b9091555050601154600160801b900463ffffffff165f908152600f602090815260408083209085015181546001810183559184529183206004820401805460039092166008026101000a6001600160401b038181021990931692909316929092021790556114c46114ba888a6156da565b60601c6014613948565b9050836040516114d49190615513565b6040518091039020601160109054906101000a900463ffffffff1663ffffffff1660115f9054906101000a90046001600160401b03166001600160401b03167f96d3844d0a60629cecb0db2955c30bde3d320dcfe41216b90637910e21fe6e86898d600b5f60125f9054906101000a90046001600160401b03166001600160401b03166001600160401b031681526020019081526020015f2054428b8960405161158396959493929190615710565b60405180910390a46002546115a1906001600160a01b03168a613ac3565b50506011546001600160401b0316925050506115c960015f516020615bba5f395f51905f5255565b949350505050565b600f602052815f5260405f2081815481106115ea575f80fd5b905f5260205f209060049182820401919006600802915091509054906101000a90046001600160401b031681565b5f61162161383e565b611629613875565b600163ffffffff83165f0361163b57505f5b5f611647336014613948565b90505f61165388613c2a565b90505f604051806101a001604052805f600181111561167457611674614a12565b815260115463ffffffff600160801b820481166020808501919091526001600160401b03928316604080860191909152918b166060850152608084018e905260a084018790525f60c0850181905260e0850181905260125484168152600b8252829020546101008501524290921661012084015251610140909201916116fc91339101615671565b6040516020818303038152906040528152602001336040516020016117219190615671565b604051602081830303815290604052815260200189898080601f0160208091040260200160405190810160405280939291908181526020018383808284375f9201829052509390945250506011546001600160401b03168152600c6020526040902082518154939450849391925090829060ff1916600183818111156117a9576117a9614a12565b021790555060208201518154604084015160608501516cffffffffffffffffffffffff001990921661010063ffffffff94851681026cffffffffffffffff0000000000191691909117600160281b6001600160401b03938416021763ffffffff60681b1916600160681b94909316939093029190911783556080840151600184015560a0840151600284015560c0840151600384015560e0840151600484015590830151600583015561012083015160068301805467ffffffffffffffff19169190921617905561014082015160078201906118859082615569565b50610160820151600882019061189b9082615569565b5061018082015160098201906118b19082615569565b5050601180546001600160401b031691505f6118cc8361569d565b82546001600160401b039182166101009390930a92830291909202199091161790555060115463ffffffff600160801b909104165f908152600d60205260408120805490918b918391906119219084906156c7565b9250508190555082816001015f82825461193b91906156c7565b9091555050601154600160801b900463ffffffff165f908152600f602090815260408083209085015181546001810183559184529183206004820401805460039092166008026101000a6001600160401b038181021990931692909316929092021790556119ac6114ba8a8c6156da565b9050846040516119bc9190615513565b6040518091039020601160109054906101000a900463ffffffff1663ffffffff1660115f9054906101000a90046001600160401b03166001600160401b03167fa1f7658642b7ccff613e1ef934e1d5a8b431063d9b912d6f9b19ceafc37de0ef8b8f89600b5f60125f9054906101000a90046001600160401b03166001600160401b03166001600160401b031681526020019081526020015f2054428d8a604051611a6d9796959493929190615768565b60405180910390a4600354611a8b906001600160a01b03168c613ac3565b8515611b07575f611a9c8a8c6156da565b6002546040516340c10f1960e01b815260609290921c600483018190526024830188905292506001600160a01b03169081906340c10f19906044015f604051808303815f87803b158015611aee575f5ffd5b505af1158015611b00573d5f5f3e3d5ffd5b5050505050505b50506011546001600160401b03169450505050506115c960015f516020615bba5f395f51905f5255565b611b39613c69565b611b4282613d0d565b611b4c8282613d15565b5050565b5f611b59613dd6565b505f516020615b7a5f395f51905f5290565b611b73613e1f565b611b7c5f613e7a565b565b60408051610140810182525f8082526020820181905291810182905260608082018390526080820183905260a0820181905260c0820181905260e0820181905261010082015261012081019190915260408051610140810182525f805482526001546001600160a01b0390811660208401526002548116938301939093526003548316606083015260045490921660808201526005805491929160a084019190611c2790615266565b80601f0160208091040260200160405190810160405280929190818152602001828054611c5390615266565b8015611c9e5780601f10611c7557610100808354040283529160200191611c9e565b820191905f5260205f20905b815481529060010190602001808311611c8157829003601f168201915b50505050508152602001600682018054611cb790615266565b80601f0160208091040260200160405190810160405280929190818152602001828054611ce390615266565b8015611d2e5780601f10611d0557610100808354040283529160200191611d2e565b820191905f5260205f20905b815481529060010190602001808311611d1157829003601f168201915b50505050508152602001600782018054611d4790615266565b80601f0160208091040260200160405190810160405280929190818152602001828054611d7390615266565b8015611dbe5780601f10611d9557610100808354040283529160200191611dbe565b820191905f5260205f20905b815481529060010190602001808311611da157829003601f168201915b50505050508152602001600882018054611dd790615266565b80601f0160208091040260200160405190810160405280929190818152602001828054611e0390615266565b8015611e4e5780601f10611e2557610100808354040283529160200191611e4e565b820191905f5260205f20905b815481529060010190602001808311611e3157829003601f168201915b50505091835250506009919091015463ffffffff16602090910152919050565b611e76613e1f565b5f516020615b9a5f395f51905f525460ff1615611e9557611b7c613eea565b611b7c613f49565b611ea561383e565b600354611ebb906001600160a01b031685613ac3565b60035460015460405163095ea7b360e01b81526001600160a01b0391821660048201526024810187905291169063095ea7b3906044016020604051808303815f875af1158015611f0d573d5f5f3e3d5ffd5b505050506040513d601f19601f82011682018060405250810190611f3191906157c7565b505f611f3f30868585613f91565b90505f611f4f4262278d006156c7565b611f5d90633b9aca006157e6565b600154600954604051600162f283d160e01b031981529293506001600160a01b039091169163ff0d7c2f91611fa59163ffffffff909116905f9086908b90899060040161582b565b5f604051808303815f87803b158015611fbc575f5ffd5b505af1158015611fce573d5f5f3e3d5ffd5b505050505050611fea60015f516020615bba5f395f51905f5255565b50505050565b611ff861383e565b612000613875565b6001546001600160a01b0316331461202b57604051636609677b60e11b815260040160405180910390fd5b610ef260015f516020615bba5f395f51905f5255565b61204961383e565b601154600160c01b900463ffffffff165f036120cd5760405162461bcd60e51b815260206004820152603760248201527f5468657265206973206e6f2070656e64696e6720756e626f6e64696e6720626160448201527f746368206e65656420746f2062652072656c656173656400000000000000000060648201526084016107e3565b6004601154600160c01b900463ffffffff165f908152600e602052604090206004015460ff16600581111561210457612104614a12565b146121665760405162461bcd60e51b815260206004820152602c60248201527f756e626f6e64696e67206261746368206e6f74207965742062652072656c656160448201526b39b2b21037b7103ab734b7b760a11b60648201526084016107e3565b601154600160c01b900463ffffffff165f908152600e60209081526040808320815160c08101835281548152600182015493810193909352600281015491830191909152600381015460608301526004810154608083019060ff1660058111156121d2576121d2614a12565b60058111156121e3576121e3614a12565b81526004919091015463ffffffff6101009091048116602092830152601154600160c01b9004165f90815260108252604080822080548251818602810186019093528083529495509193909283018282801561228757602002820191905f5260205f20905f905b82829054906101000a900463ffffffff1663ffffffff168152602001906004019060208260030104928301926001038202915080841161224a5790505b505050505090505f61229882612e44565b80519091505f5b8181101561272e575f8382815181106122ba576122ba61586d565b602002602001015190505f600f5f836080015163ffffffff1663ffffffff1681526020019081526020015f2080548060200260200160405190810160405280929190818152602001828054801561235f57602002820191905f5260205f20905f905b82829054906101000a90046001600160401b03166001600160401b03168152602001906008019060208260070104928301926001038202915080841161231c5790505b505083519394505f925050505b8181101561271e575f600c5f85888151811061238a5761238a61586d565b6020908102919091018101516001600160401b0316825281019190915260409081015f2081516101a081019092528054829060ff1660018111156123d0576123d0614a12565b60018111156123e1576123e1614a12565b8152815463ffffffff610100808304821660208501526001600160401b03600160281b840481166040860152600160681b909304909116606084015260018401546080840152600284015460a0840152600384015460c0840152600484015460e08401526005840154908301526006830154166101208201526007820180546101409092019161247090615266565b80601f016020809104026020016040519081016040528092919081815260200182805461249c90615266565b80156124e75780601f106124be576101008083540402835291602001916124e7565b820191905f5260205f20905b8154815290600101906020018083116124ca57829003601f168201915b5050505050815260200160088201805461250090615266565b80601f016020809104026020016040519081016040528092919081815260200182805461252c90615266565b80156125775780601f1061254e57610100808354040283529160200191612577565b820191905f5260205f20905b81548152906001019060200180831161255a57829003601f168201915b5050505050815260200160098201805461259090615266565b80601f01602080910402602001604051908101604052809291908181526020018280546125bc90615266565b80156126075780601f106125de57610100808354040283529160200191612607565b820191905f5260205f20905b8154815290600101906020018083116125ea57829003601f168201915b50505050508152505090508060e001515f14801561262857505f8160c00151115b15612715575f8a5f0151670de0b6b3a76400008360c0015161264a91906157e6565b6126549190615881565b90505f818c6060015161266791906157e6565b90505f836101800151612679906158a0565b60035460405163a9059cbb60e01b815260609290921c600483018190526024830185905292506001600160a01b03169063a9059cbb906044016020604051808303815f875af11580156126ce573d5f5f3e3d5ffd5b505050506040513d601f19601f820116820180604052508101906126f291906157c7565b5060e0840182905260608801805183919061270e9083906156c7565b9052505050505b5060010161236c565b50506001909201915061229f9050565b50506011805463ffffffff600160c01b909104165f908152600e60205260409020600401805460ff19166005179055805463ffffffff60c01b1916905550611b7c91506139359050565b60606014805461278790615266565b80601f01602080910402602001604051908101604052809291908181526020018280546127b390615266565b80156127fe5780601f106127d5576101008083540402835291602001916127fe565b820191905f5260205f20905b8154815290600101906020018083116127e157829003601f168201915b5050505050905090565b63ffffffff81165f908152600f6020908152604080832080548251818502810185019093528083526060949383018282801561289257602002820191905f5260205f20905f905b82829054906101000a90046001600160401b03166001600160401b03168152602001906008019060208260070104928301926001038202915080841161284f5790505b505050505090505f815190505f816001600160401b038111156128b7576128b7614c50565b60405190808252806020026020018201604052801561296857816020015b612955604080516101a08101909152805f81526020015f63ffffffff1681526020015f6001600160401b031681526020015f63ffffffff1681526020015f81526020015f81526020015f81526020015f81526020015f81526020015f6001600160401b031681526020016060815260200160608152602001606081525090565b8152602001906001900390816128d55790505b5090505f5b82811015612c3a575f600c5f86848151811061298b5761298b61586d565b6020908102919091018101516001600160401b0316825281019190915260409081015f2081516101a081019092528054829060ff1660018111156129d1576129d1614a12565b60018111156129e2576129e2614a12565b8152815463ffffffff610100808304821660208501526001600160401b03600160281b840481166040860152600160681b909304909116606084015260018401546080840152600284015460a0840152600384015460c0840152600484015460e084015260058401549083015260068301541661012082015260078201805461014090920191612a7190615266565b80601f0160208091040260200160405190810160405280929190818152602001828054612a9d90615266565b8015612ae85780601f10612abf57610100808354040283529160200191612ae8565b820191905f5260205f20905b815481529060010190602001808311612acb57829003601f168201915b50505050508152602001600882018054612b0190615266565b80601f0160208091040260200160405190810160405280929190818152602001828054612b2d90615266565b8015612b785780601f10612b4f57610100808354040283529160200191612b78565b820191905f5260205f20905b815481529060010190602001808311612b5b57829003601f168201915b50505050508152602001600982018054612b9190615266565b80601f0160208091040260200160405190810160405280929190818152602001828054612bbd90615266565b8015612c085780601f10612bdf57610100808354040283529160200191612c08565b820191905f5260205f20905b815481529060010190602001808311612beb57829003601f168201915b505050505081525050905080838381518110612c2657612c2661586d565b60209081029190910101525060010161296d565b50949350505050565b63ffffffff81165f908152600f6020908152604091829020805483518184028101840190945280845260609392830182828015612cce57602002820191905f5260205f20905f905b82829054906101000a90046001600160401b03166001600160401b031681526020019060080190602082600701049283019260010382029150808411612c8b5790505b50505050509050919050565b600a6020525f9081526040902080548190612cf490615266565b80601f0160208091040260200160405190810160405280929190818152602001828054612d2090615266565b8015612d6b5780601f10612d4257610100808354040283529160200191612d6b565b820191905f5260205f20905b815481529060010190602001808311612d4e57829003601f168201915b505050505090806001018054612d8090615266565b80601f0160208091040260200160405190810160405280929190818152602001828054612dac90615266565b8015612df75780601f10612dce57610100808354040283529160200191612df7565b820191905f5260205f20905b815481529060010190602001808311612dda57829003601f168201915b5050506002909301549192505063ffffffff1683565b612e15613e1f565b6012805467ffffffffffffffff1916426001600160401b03169081179091555f908152600b6020526040902055565b60605f82516001600160401b03811115612e6057612e60614c50565b604051908082528060200260200182016040528015612e9957816020015b612e86614838565b815260200190600190039081612e7e5790505b5090505f5b8351811015612f77575f848281518110612eba57612eba61586d565b60209081029190910181015163ffffffff8082165f908152600d8452604090819020815160c081018352815481526001820154958101959095526002810154918501919091526003808201546060860152600482015492831660808601529294509160a0840191640100000000900460ff1690811115612f3c57612f3c614a12565b6003811115612f4d57612f4d614a12565b81525050838381518110612f6357612f6361586d565b602090810291909101015250600101612e9e565b5092915050565b612f8661383e565b600354612f9c906001600160a01b031683613ac3565b60035460015460405163095ea7b360e01b81526001600160a01b0391821660048201526024810185905291169063095ea7b3906044016020604051808303815f875af1158015612fee573d5f5f3e3d5ffd5b505050506040513d601f19601f8201168201806040525081019061301291906157c7565b505f61301d5f6138a5565b61302760026138a5565b61303160036138a5565b61303b60046138a5565b856040516020016130509594939291906158ee565b60408051601f198184030181529190529050805f61306f3086846140f7565b90505f61307f4262278d006156c7565b61308d90633b9aca006157e6565b600154600954604051600162f283d160e01b031981529293506001600160a01b039091169163ff0d7c2f916130d59163ffffffff909116905f9086908b90899060040161582b565b5f604051808303815f87803b1580156130ec575f5ffd5b505af11580156130fe573d5f5f3e3d5ffd5b5050505050505050611b4c60015f516020615bba5f395f51905f5255565b613124614838565b63ffffffff8281165f908152600d6020908152604091829020825160c08101845281548152600182015492810192909252600281015492820192909252600380830154606083015260048301549384166080830152909260a084019164010000000090910460ff169081111561319c5761319c614a12565b60038111156131ad576131ad614a12565b90525092915050565b6131be613e1f565b6001600160a01b0381166131e757604051631e4fbdf760e01b81525f60048201526024016107e3565b6131f081613e7a565b50565b5f6131fc614354565b805490915060ff600160401b82041615906001600160401b03165f811580156132225750825b90505f826001600160401b0316600114801561323d5750303b155b90508115801561324b575080155b156132695760405163f92ee8a960e01b815260040160405180910390fd5b845467ffffffffffffffff19166001178555831561329357845460ff60401b1916600160401b1785555b5f6132a46040880160208901615216565b6001600160a01b0316036132b6575f5ffd5b6132ce6132c96040880160208901615216565b61437c565b6132d661438d565b60408051610140810190915286358152602081016132fa60a0890160808a01615216565b6001600160a01b031681526020016133186080890160608a01615216565b6001600160a01b031681526020016133366060890160408a01615216565b6001600160a01b0316815260200161335661016089016101408a01615216565b6001600160a01b0316815260200161337160e08901896159ca565b8080601f0160208091040260200160405190810160405280939291908181526020018383808284375f920191909152505050908252506020016133b86101008901896159ca565b8080601f0160208091040260200160405190810160405280939291908181526020018383808284375f920191909152505050908252506020016133fe60c08901896159ca565b8080601f0160208091040260200160405190810160405280939291908181526020018383808284375f9201919091525050509082525060200161344460a08901896159ca565b8080601f0160208091040260200160405190810160405280939291908181526020018383808284375f9201919091525050509082525060200161348f61018089016101608a01614b23565b63ffffffff16905280515f9081556020820151600180546001600160a01b039283166001600160a01b03199182161790915560408401516002805491841691831691909117905560608401516003805491841691831691909117905560808401516004805491909316911617905560a082015160059061350f9082615569565b5060c082015160068201906135249082615569565b5060e082015160078201906135399082615569565b50610100820151600882019061354f9082615569565b5061012091820151600991909101805463ffffffff191663ffffffff909216919091179055604080516060810190915290819061358e908901896159ca565b8080601f0160208091040260200160405190810160405280939291908181526020018383808284375f920191909152505050908252506020016135d56101208901896159ca565b8080601f0160208091040260200160405190810160405280939291908181526020018383808284375f9201919091525050509082525060200161362061018089016101608a01614b23565b63ffffffff169052600a5f61363d6101808a016101608b01614b23565b63ffffffff16815260208101919091526040015f20815181906136609082615569565b50602082015160018201906136759082615569565b50604091909101516002909101805463ffffffff191663ffffffff9092169190911790556012805467ffffffffffffffff1916426001600160401b031617905546617a69036136fc57600a6136d3670de0b6b3a7640000600b6157e6565b6136dd9190615881565b6012546001600160401b03165f908152600b6020526040902055613721565b6012546001600160401b03165f908152600b60205260409020670de0b6b3a764000090555b60118054600160801b63ffffffff60801b199091168117918290556040805160c0810182525f80825260208083018281528385018381526060850184815263ffffffff9790980487166080860181815260a08701868152918652600d909452959093208451815590516001820155915160028301559451600380830191909155945160048201805463ffffffff19811692909616918217815593519295869592949264ffffffffff1916909117906401000000009084908111156137e7576137e7614a12565b021790555090505050831561383657845460ff60401b19168555604051600181527fc7f505b2f371ae2175ee4913f4499e1f2633a7b5936321eed1cdaeb6115181d29060200160405180910390a15b505050505050565b5f516020615bba5f395f51905f5280546001190161386f57604051633ee5aeb560e01b815260040160405180910390fd5b60029055565b5f516020615b9a5f395f51905f525460ff1615611b7c5760405163d93c066560e01b815260040160405180910390fd5b60605f6138b183614395565b60010190505f816001600160401b038111156138cf576138cf614c50565b6040519080825280601f01601f1916602001820160405280156138f9576020820181803683370190505b5090508181016020015b5f19016f181899199a1a9b1b9c1cb0b131b232b360811b600a86061a8153600a8504945084613903575b509392505050565b60015f516020615bba5f395f51905f5255565b6060825f6139578460026157e6565b6139629060026156c7565b6001600160401b0381111561397957613979614c50565b6040519080825280601f01601f1916602001820160405280156139a3576020820181803683370190505b509050600360fc1b815f815181106139bd576139bd61586d565b60200101906001600160f81b03191690815f1a905350600f60fb1b816001815181106139eb576139eb61586d565b60200101906001600160f81b03191690815f1a9053505f613a0d8560026157e6565b613a189060016156c7565b90505b6001811115613a8f576f181899199a1a9b1b9c1cb0b131b232b360811b83600f1660108110613a4c57613a4c61586d565b1a60f81b828281518110613a6257613a6261586d565b60200101906001600160f81b03191690815f1a90535060049290921c91613a8881615a0c565b9050613a1b565b508115613ab95760405163e22e27eb60e01b815260048101869052602481018590526044016107e3565b9150505b92915050565b604051636eb1769f60e11b815233600482015230602482015281906001600160a01b0384169063dd62ed3e90604401602060405180830381865afa158015613b0d573d5f5f3e3d5ffd5b505050506040513d601f19601f82011682018060405250810190613b319190615a21565b1015613b785760405162461bcd60e51b8152602060048201526016602482015275496e73756666696369656e7420616c6c6f77616e636560501b60448201526064016107e3565b6040516323b872dd60e01b8152336004820152306024820152604481018290526001600160a01b038316906323b872dd906064016020604051808303815f875af1158015613bc8573d5f5f3e3d5ffd5b505050506040513d601f19601f82011682018060405250810190613bec91906157c7565b611b4c5760405162461bcd60e51b815260206004820152600f60248201526e151c985b9cd9995c8819985a5b1959608a1b60448201526064016107e3565b6012546001600160401b03165f908152600b60205260408120548190613c58670de0b6b3a7640000856157e6565b613c629190615881565b9392505050565b306001600160a01b037f0000000000000000000000000000000000000000000000000000000000000000161480613cef57507f00000000000000000000000000000000000000000000000000000000000000006001600160a01b0316613ce35f516020615b7a5f395f51905f52546001600160a01b031690565b6001600160a01b031614155b15611b7c5760405163703e46dd60e11b815260040160405180910390fd5b6131f0613e1f565b816001600160a01b03166352d1902d6040518163ffffffff1660e01b8152600401602060405180830381865afa925050508015613d6f575060408051601f3d908101601f19168201909252613d6c91810190615a21565b60015b613d9757604051634c9c8ce360e01b81526001600160a01b03831660048201526024016107e3565b5f516020615b7a5f395f51905f528114613dc757604051632a87526960e21b8152600481018290526024016107e3565b613dd1838361446c565b505050565b306001600160a01b037f00000000000000000000000000000000000000000000000000000000000000001614611b7c5760405163703e46dd60e11b815260040160405180910390fd5b33613e517f9016d09d72d40fdae2fd8ceac6b6234c7706214fd39c1cd1e609a0528c199300546001600160a01b031690565b6001600160a01b031614611b7c5760405163118cdaa760e01b81523360048201526024016107e3565b7f9016d09d72d40fdae2fd8ceac6b6234c7706214fd39c1cd1e609a0528c19930080546001600160a01b031981166001600160a01b03848116918217845560405192169182907f8be0079c531659141344cd1fd0a4f28419497f9722a3daafe3b4186f6b6457e0905f90a3505050565b613ef26144c1565b5f516020615b9a5f395f51905f52805460ff191681557f5db9ee0a495bf2e6ff9c91a7834c1ba4fdd244a5e8aa4e537bd38aeae4b073aa335b6040516001600160a01b03909116815260200160405180910390a150565b613f51613875565b5f516020615b9a5f395f51905f52805460ff191660011781557f62e78cea01bee320cd4e420270b5ea74000d11b0c9f74754ebdbfc544b05a25833613f2b565b60408051606080820183525f8083526020830152918101919091525f60405180610100016040528087604051602001613fca9190615671565b60405160208183030381529060405281526020018585604051602001613ff192919061530f565b60408051601f198184030181529181529082526003549051602092830192614023926001600160a01b03169101615671565b60405160208183030381529060405281526020018681526020015f600601604051602001614051919061529e565b6040516020818303038152906040528152602001868152602001600360ff1681526020016140c260405180604001604052805f600701604051602001614097919061529e565b604051602081830303815290604052815260200160405180602001604052805f8152508152506144f0565b90526040805160608101825260028152600360208201529192505f919081016140ea84614522565b9052979650505050505050565b60408051606080820183525f8083526020830152918101919091525f604051806101000160405280866040516020016141309190615671565b60405160208183030381529060405281526020015f600801604051602001614158919061529e565b60408051601f19818403018152918152908252600354905160209283019261418a926001600160a01b03169101615671565b60405160208183030381529060405281526020018581526020015f6006016040516020016141b8919061529e565b6040516020818303038152906040528152602001858152602001600360ff1681526020016141fe60405180604001604052805f600701604051602001614097919061529e565b9052604080516002808252606082019092529192505f9190816020015b60408051606080820183525f80835260208301529181019190915281526020019060019003908161421b575050604080516060810182526002815260036020820152919250810161426b84614522565b815250815f815181106142805761428061586d565b6020026020010181905250614321865f5f600801805461429f90615266565b80601f01602080910402602001604051908101604052809291908181526020018280546142cb90615266565b80156143165780601f106142ed57610100808354040283529160200191614316565b820191905f5260205f20905b8154815290600101906020018083116142f957829003601f168201915b505050505087614562565b816001815181106143345761433461586d565b60200260200101819052505f614349826145e6565b979650505050505050565b5f807ff0c57e16840df040f15088dc2f81fe391c3923bec73e23a9662efc9c229c6a00613abd565b61438461463e565b6131f081614663565b611b7c61463e565b5f8072184f03e93ff9f4daa797ed6e38ed64bf6a1f0160401b83106143d35772184f03e93ff9f4daa797ed6e38ed64bf6a1f0160401b830492506040015b6d04ee2d6d415b85acef810000000083106143ff576d04ee2d6d415b85acef8100000000830492506020015b662386f26fc10000831061441d57662386f26fc10000830492506010015b6305f5e1008310614435576305f5e100830492506008015b612710831061444957612710830492506004015b6064831061445b576064830492506002015b600a8310613abd5760010192915050565b6144758261466b565b6040516001600160a01b038316907fbc7cd75a20ee27fd9adebab32041f755214dbc6bffa90cc0225b39da2e5c2d3b905f90a28051156144b957613dd182826146ce565b611b4c614740565b5f516020615b9a5f395f51905f525460ff16611b7c57604051638dfc202b60e01b815260040160405180910390fd5b6060815f0151826020015160405160200161450c929190615a38565b6040516020818303038152906040529050919050565b6060815f015182602001518360400151846060015185608001518660a001518760c001518860e0015160405160200161450c989796959493929190615a5c565b60408051606080820183525f808352602083015291810191909152604080516060810182525f815260016020820152815160808101835290918201906145db90806145b08a60a08301615671565b604051602081830303815290604052815260200188151581526020018781526020018681525061475f565b905295945050505050565b60408051606080820183525f80835260208301529181019190915260405180606001604052805f60ff168152602001600260ff168152602001614636604051806020016040528086815250614787565b905292915050565b61464661479b565b611b7c57604051631afcd79f60e31b815260040160405180910390fd5b6131be61463e565b806001600160a01b03163b5f036146a057604051634c9c8ce360e01b81526001600160a01b03821660048201526024016107e3565b5f516020615b7a5f395f51905f5280546001600160a01b0319166001600160a01b0392909216919091179055565b60605f5f846001600160a01b0316846040516146ea9190615513565b5f60405180830381855af49150503d805f8114614722576040519150601f19603f3d011682016040523d82523d5f602084013e614727565b606091505b50915091506147378583836147b4565b95945050505050565b3415611b7c5760405163b398979f60e01b815260040160405180910390fd5b6060815f015182602001518360400151846060015160405160200161450c9493929190615ae2565b805160405160609161450c91602001615b22565b5f6147a4614354565b54600160401b900460ff16919050565b6060826147c9576147c482614810565b613c62565b81511580156147e057506001600160a01b0384163b155b1561480957604051639996b31560e01b81526001600160a01b03851660048201526024016107e3565b5080613c62565b80511561481f57805160208201fd5b60405163d6bda27560e01b815260040160405180910390fd5b6040518060c001604052805f81526020015f81526020015f81526020015f81526020015f63ffffffff1681526020015f600381111561487957614879614a12565b905290565b80356001600160a01b0381168114614894575f5ffd5b919050565b63ffffffff811681146131f0575f5ffd5b803561489481614899565b5f5f83601f8401126148c5575f5ffd5b5081356001600160401b038111156148db575f5ffd5b6020830191508360208285010111156148f2575f5ffd5b9250929050565b5f5f5f5f5f5f5f5f5f5f5f6101008c8e031215614914575f5ffd5b61491d8c61487e565b9a5060208c0135995061493260408d016148aa565b985061494060608d016148aa565b975060808c01356001600160401b0381111561495a575f5ffd5b6149668e828f016148b5565b90985096505060a08c01356001600160401b03811115614984575f5ffd5b6149908e828f016148b5565b90965094506149a3905060c08d0161487e565b925060e08c01356001600160401b038111156149bd575f5ffd5b6149c98e828f016148b5565b915080935050809150509295989b509295989b9093969950565b6001600160401b03811681146131f0575f5ffd5b5f60208284031215614a07575f5ffd5b8135613c62816149e3565b634e487b7160e01b5f52602160045260245ffd5b60028110614a3657614a36614a12565b9052565b5f81518084528060208401602086015e5f602082860101526020601f19601f83011685010191505092915050565b614a72818f614a26565b63ffffffff8d1660208201526001600160401b038c16604082015263ffffffff8b1660608201528960808201528860a08201528760c08201528660e082015285610100820152614ace6101208201866001600160401b03169052565b6101a06101408201525f614ae66101a0830186614a3a565b828103610160840152614af98186614a3a565b9050828103610180840152614b0e8185614a3a565b9150509e9d5050505050505050505050505050565b5f60208284031215614b33575f5ffd5b8135613c6281614899565b5f60c08201905087825286602083015285604083015284606083015260068410614b6a57614b6a614a12565b83608083015263ffffffff831660a0830152979650505050505050565b5f5f60408385031215614b98575f5ffd5b8235614ba381614899565b946020939093013593505050565b5f5f5f5f60608587031215614bc4575f5ffd5b8435935060208501356001600160401b03811115614be0575f5ffd5b614bec878288016148b5565b9094509250506040850135614c0081614899565b939692955090935050565b60048110614a3657614a36614a12565b5f60c08201905087825286602083015285604083015284606083015263ffffffff8416608083015261434960a0830184614c0b565b634e487b7160e01b5f52604160045260245ffd5b60405160a081016001600160401b0381118282101715614c8657614c86614c50565b60405290565b604051601f8201601f191681016001600160401b0381118282101715614cb457614cb4614c50565b604052919050565b5f6001600160401b03821115614cd457614cd4614c50565b50601f01601f191660200190565b5f5f60408385031215614cf3575f5ffd5b614cfc8361487e565b915060208301356001600160401b03811115614d16575f5ffd5b8301601f81018513614d26575f5ffd5b8035614d39614d3482614cbc565b614c8c565b818152866020838501011115614d4d575f5ffd5b816020840160208301375f602083830101528093505050509250929050565b60208152815160208201525f6020830151614d9260408401826001600160a01b03169052565b5060408301516001600160a01b03811660608401525060608301516001600160a01b03811660808401525060808301516001600160a01b03811660a08401525060a083015161014060c0840152614ded610160840182614a3a565b905060c0840151601f198483030160e0850152614e0a8282614a3a565b91505060e0840151601f1984830301610100850152614e298282614a3a565b915050610100840151601f1984830301610120850152614e498282614a3a565b91505061012084015161392d61014085018263ffffffff169052565b5f5f5f5f60608587031215614e78575f5ffd5b843593506020850135925060408501356001600160401b03811115614e9b575f5ffd5b614ea7878288016148b5565b95989497509550505050565b602081525f613c626020830184614a3a565b5f602082016020835280845180835260408501915060408160051b8601019250602086015f5b8281101561501257603f198786030184528151614f09868251614a26565b6020810151614f20602088018263ffffffff169052565b506040810151614f3b60408801826001600160401b03169052565b506060810151614f53606088018263ffffffff169052565b506080810151608087015260a081015160a087015260c081015160c087015260e081015160e0870152610100810151610100870152610120810151614fa46101208801826001600160401b03169052565b506101408101516101a0610140880152614fc26101a0880182614a3a565b9050610160820151878203610160890152614fdd8282614a3a565b9150506101808201519150868103610180880152614ffb8183614a3a565b965050506020938401939190910190600101614eeb565b50929695505050505050565b602080825282518282018190525f918401906040840190835b8181101561505e5783516001600160401b0316835260209384019390920191600101615037565b509095945050505050565b606081525f61507b6060830186614a3a565b828103602084015261508d8186614a3a565b91505063ffffffff83166040830152949350505050565b5f602082840312156150b4575f5ffd5b5035919050565b5f602082840312156150cb575f5ffd5b81356001600160401b038111156150e0575f5ffd5b8201601f810184136150f0575f5ffd5b80356001600160401b0381111561510957615109614c50565b8060051b61511960208201614c8c565b91825260208184018101929081019087841115615134575f5ffd5b6020850194505b83851015614349578435925061515083614899565b8282526020948501949091019061513b565b8051825260208101516020830152604081015160408301526060810151606083015263ffffffff608082015116608083015260a0810151613dd160a0840182614c0b565b602080825282518282018190525f918401906040840190835b8181101561505e576151d2838551615162565b6020939093019260c092909201916001016151bf565b5f5f604083850312156151f9575f5ffd5b50508035926020909101359150565b60c08101613abd8284615162565b5f60208284031215615226575f5ffd5b613c628261487e565b5f6020828403121561523f575f5ffd5b81356001600160401b03811115615254575f5ffd5b82016101808185031215613c62575f5ffd5b600181811c9082168061527a57607f821691505b60208210810361529857634e487b7160e01b5f52602260045260245ffd5b50919050565b5f5f83546152ab81615266565b6001821680156152c257600181146152d757615304565b60ff1983168652811515820286019350615304565b865f5260205f205f5b838110156152fc578154888201526001909101906020016152e0565b505081860193505b509195945050505050565b818382375f9101908152919050565b60208152816020820152818360408301375f818301604090810191909152601f909201601f19160101919050565b805161489481614899565b8051614894816149e3565b5f60208284031215615372575f5ffd5b81516001600160401b03811115615387575f5ffd5b820160a08185031215615398575f5ffd5b6153a0614c64565b81516001600160401b038111156153b5575f5ffd5b8201601f810186136153c5575f5ffd5b80516153d3614d3482614cbc565b8181528760208385010111156153e7575f5ffd5b8160208401602083015e5f6020838301015280845250505061540b6020830161534c565b6020820152604082810151908201526060808301519082015261543060808301615357565b6080820152949350505050565b5f81518060208401855e5f93019283525090919050565b607b60f81b8152691130b1ba34b7b7111d1160b11b60018201525f61547c600b83018861543d565b681116101134b2111d1160b91b8152615498600982018861543d565b6b11161130b6b7bab73a111d1160a11b815290506154b9600c82018761543d565b691116113930ba32911d1160b11b815290506154d8600a82018661543d565b6e113ab734b7b72fb13637b1b5911d1160891b815290506154fc600f82018561543d565b61227d60f01b815260020198975050505050505050565b5f613c62828461543d565b601f821115613dd157805f5260205f20601f840160051c810160208510156155435750805b601f840160051c820191505b81811015615562575f815560010161554f565b5050505050565b81516001600160401b0381111561558257615582614c50565b615596816155908454615266565b8461551e565b6020601f8211600181146155c8575f83156155b15750848201515b5f19600385901b1c1916600184901b178455615562565b5f84815260208120601f198516915b828110156155f757878501518255602094850194600190920191016155d7565b508482101561561457868401515f19600387901b60f8161c191681555b50505050600190811b01905550565b85815263ffffffff8516602082015263ffffffff8416604082015260a060608201525f61565360a0830185614a3a565b82810360808401526156658185614a3a565b98975050505050505050565b60609190911b6001600160601b031916815260140190565b634e487b7160e01b5f52601160045260245ffd5b5f6001600160401b0382166001600160401b0381036156be576156be615689565b60010192915050565b80820180821115613abd57613abd615689565b80356001600160601b03198116906014841015612f77576001600160601b031960149490940360031b84901b1690921692915050565b63ffffffff871681528560208201528460408201526001600160401b038416606082015260c060808201525f61574960c0830185614a3a565b82810360a084015261575b8185614a3a565b9998505050505050505050565b63ffffffff881681528660208201528560408201528460608201526001600160401b038416608082015260e060a08201525f6157a760e0830185614a3a565b82810360c08401526157b98185614a3a565b9a9950505050505050505050565b5f602082840312156157d7575f5ffd5b81518015158114613c62575f5ffd5b8082028115828204841417613abd57613abd615689565b60ff815116825260ff60208201511660208301525f6040820151606060408501526115c96060850182614a3a565b63ffffffff861681526001600160401b03851660208201526001600160401b038416604082015282606082015260a060808201525f61434960a08301846157fd565b634e487b7160e01b5f52603260045260245ffd5b5f8261589b57634e487b7160e01b5f52601260045260245ffd5b500490565b805160208201516001600160601b03198116919060148210156158e7576bffffffffffffffffffffffff196bffffffffffffffffffffffff198360140360031b1b82161692505b5050919050565b7403d91343ab12fb130ba31b4111d103d9134b2111d1605d1b81525f615917601583018861543d565b7f7d7d2c2264656c65676174655f616d6f756e74223a20220000000000000000008152615947601782018861543d565b741116113ab739ba30b5b2afb0b6b7bab73a111d101160591b81529050615971601582018761543d565b7111161136b4b73a2fb0b6b7bab73a111d101160711b81529050615998601282018661543d565b6a1116101139b0b63a111d1160a91b8152600b810194909452505061227d60f01b602b83015250602d01949350505050565b5f5f8335601e198436030181126159df575f5ffd5b8301803591506001600160401b038211156159f8575f5ffd5b6020019150368190038213156148f2575f5ffd5b5f81615a1a57615a1a615689565b505f190190565b5f60208284031215615a31575f5ffd5b5051919050565b604081525f615a4a6040830185614a3a565b82810360208401526147378185614a3a565b61010081525f615a7061010083018b614a3a565b8281036020840152615a82818b614a3a565b90508281036040840152615a96818a614a3a565b90508760608401528281036080840152615ab08188614a3a565b90508560a084015260ff851660c084015282810360e0840152615ad38185614a3a565b9b9a5050505050505050505050565b608081525f615af46080830187614a3a565b85151560208401528281036040840152615b0e8186614a3a565b905082810360608401526143498185614a3a565b5f602082016020835280845180835260408501915060408160051b8601019250602086015f5b8281101561501257603f19878603018452615b648583516157fd565b94506020938401939190910190600101615b4856fe360894a13ba1a3210667c828492db98dca3e2076cc3735a920a3ca505d382bbccd5ed15c6e187e77e9aee88184c21f4f2182ab5827cb3b7e07fbedcd63f033009b779b17422d0df92223018b32b4d1fa46e071723d6817e2486d003becc55f00a26469706673582212204c21f9368df0b50f8e0541725b7d930a0b71fa333f439f4444e5e00677fedcc864736f6c634300081e0033",
        "linkReferences": {
            "src/core/Zkgm.sol": {
                "ZkgmLstLib": [
                    {
                        "start": 2452,
                        "length": 20
                    }
                ]
            }
        }
    },
    "methodIdentifiers": {
        "SCALING_FACTOR()": "ef4cadc5",
        "UPGRADE_INTERFACE_VERSION()": "ad3cb1cc",
        "batchHubRecordIds(uint32,uint256)": "495f23de",
        "batchWithdrawal()": "8dc32360",
        "batches(uint32)": "3fef78cb",
        "config()": "79502c55",
        "exchangeRate(uint64)": "ab33bd0b",
        "getBatch(uint32)": "efe9260f",
        "getCurrentBatchId()": "e720ac8e",
        "getExchangeRate()": "e6aa216c",
        "getHubBatchesFromIds(uint32[])": "dd63a594",
        "getHubRecordsBatch(uint32)": "ae8bd984",
        "getHubRecordsFromBatchId(uint32)": "9d2eceb2",
        "getLog()": "909e4ab6",
        "getVersion()": "0d8e6e2c",
        "hubRecords(uint64)": "0fae3c52",
        "initialize((uint256,address,address,address,address,string,string,string,string,bytes,address,uint32))": "fe9a3f5f",
        "isTestMode()": "60efe48c",
        "onIntentZkgm(address,uint256,uint32,uint32,bytes,bytes,address,bytes)": "8c81dd76",
        "onZkgm(address,uint256,uint32,uint32,bytes,bytes,address,bytes)": "0bf1e375",
        "owner()": "8da5cb5b",
        "pauseToggle()": "834307d9",
        "paused()": "5c975abb",
        "proxiableUUID()": "52d1902d",
        "renounceOwnership()": "715018a6",
        "setExchangeRate(uint256)": "db068e0e",
        "stake(uint256,bytes,uint32)": "4b4f37cd",
        "transfer(uint256,bytes32,string)": "856ea969",
        "transferAndCall(uint256,bytes32)": "e8dc2be5",
        "transferOwnership(address)": "f2fde38b",
        "ucs03Channels(uint32)": "d7e1644c",
        "unbondingBatches(uint32)": "114771b2",
        "unbondingHubBatchIds(uint32,uint256)": "351e131c",
        "unstake(uint256,bytes,uint32)": "381ac293",
        "upgradeToAndCall(address,bytes)": "4f1ef286"
    },
    "storageLayout": {
        "storage": [
            {
                "astId": 16302,
                "contract": "src/Lst.sol:Lst",
                "label": "s_config",
                "offset": 0,
                "slot": "0",
                "type": "t_struct(Config)18318_storage"
            },
            {
                "astId": 16307,
                "contract": "src/Lst.sol:Lst",
                "label": "ucs03Channels",
                "offset": 0,
                "slot": "10",
                "type": "t_mapping(t_uint32,t_struct(Ucs03Channel)18325_storage)"
            },
            {
                "astId": 16311,
                "contract": "src/Lst.sol:Lst",
                "label": "exchangeRate",
                "offset": 0,
                "slot": "11",
                "type": "t_mapping(t_uint64,t_uint256)"
            },
            {
                "astId": 16316,
                "contract": "src/Lst.sol:Lst",
                "label": "hubRecords",
                "offset": 0,
                "slot": "12",
                "type": "t_mapping(t_uint64,t_struct(HubRecord)18356_storage)"
            },
            {
                "astId": 16321,
                "contract": "src/Lst.sol:Lst",
                "label": "batches",
                "offset": 0,
                "slot": "13",
                "type": "t_mapping(t_uint32,t_struct(HubBatch)18375_storage)"
            },
            {
                "astId": 16326,
                "contract": "src/Lst.sol:Lst",
                "label": "unbondingBatches",
                "offset": 0,
                "slot": "14",
                "type": "t_mapping(t_uint32,t_struct(UnbondingBatch)18396_storage)"
            },
            {
                "astId": 16331,
                "contract": "src/Lst.sol:Lst",
                "label": "batchHubRecordIds",
                "offset": 0,
                "slot": "15",
                "type": "t_mapping(t_uint32,t_array(t_uint64)dyn_storage)"
            },
            {
                "astId": 16336,
                "contract": "src/Lst.sol:Lst",
                "label": "unbondingHubBatchIds",
                "offset": 0,
                "slot": "16",
                "type": "t_mapping(t_uint32,t_array(t_uint32)dyn_storage)"
            },
            {
                "astId": 16338,
                "contract": "src/Lst.sol:Lst",
                "label": "hubRecordId",
                "offset": 0,
                "slot": "17",
                "type": "t_uint64"
            },
            {
                "astId": 16340,
                "contract": "src/Lst.sol:Lst",
                "label": "lastUnionBlockRecorded",
                "offset": 8,
                "slot": "17",
                "type": "t_uint64"
            },
            {
                "astId": 16342,
                "contract": "src/Lst.sol:Lst",
                "label": "currentHubBatchId",
                "offset": 16,
                "slot": "17",
                "type": "t_uint32"
            },
            {
                "astId": 16344,
                "contract": "src/Lst.sol:Lst",
                "label": "currentUnbondingBatchId",
                "offset": 20,
                "slot": "17",
                "type": "t_uint32"
            },
            {
                "astId": 16346,
                "contract": "src/Lst.sol:Lst",
                "label": "pendingReleasedUnbondingBatchId",
                "offset": 24,
                "slot": "17",
                "type": "t_uint32"
            },
            {
                "astId": 16348,
                "contract": "src/Lst.sol:Lst",
                "label": "lastUpdateTimestamp",
                "offset": 0,
                "slot": "18",
                "type": "t_uint64"
            },
            {
                "astId": 16350,
                "contract": "src/Lst.sol:Lst",
                "label": "batchPeriod",
                "offset": 8,
                "slot": "18",
                "type": "t_uint64"
            },
            {
                "astId": 16352,
                "contract": "src/Lst.sol:Lst",
                "label": "unbondingBatchPeriod",
                "offset": 16,
                "slot": "18",
                "type": "t_uint64"
            },
            {
                "astId": 16354,
                "contract": "src/Lst.sol:Lst",
                "label": "batchUnbondingPeriod",
                "offset": 24,
                "slot": "18",
                "type": "t_uint64"
            },
            {
                "astId": 16356,
                "contract": "src/Lst.sol:Lst",
                "label": "lastHubBatchTimestamp",
                "offset": 0,
                "slot": "19",
                "type": "t_uint64"
            },
            {
                "astId": 16358,
                "contract": "src/Lst.sol:Lst",
                "label": "lastHubBatchAckTimestamp",
                "offset": 8,
                "slot": "19",
                "type": "t_uint64"
            },
            {
                "astId": 16360,
                "contract": "src/Lst.sol:Lst",
                "label": "lastUnbondingBatchTimestamp",
                "offset": 16,
                "slot": "19",
                "type": "t_uint64"
            },
            {
                "astId": 16367,
                "contract": "src/Lst.sol:Lst",
                "label": "debugLog",
                "offset": 0,
                "slot": "20",
                "type": "t_string_storage"
            }
        ],
        "types": {
            "t_address": {
                "encoding": "inplace",
                "label": "address",
                "numberOfBytes": "20"
            },
            "t_array(t_uint32)dyn_storage": {
                "encoding": "dynamic_array",
                "label": "uint32[]",
                "numberOfBytes": "32",
                "base": "t_uint32"
            },
            "t_array(t_uint64)dyn_storage": {
                "encoding": "dynamic_array",
                "label": "uint64[]",
                "numberOfBytes": "32",
                "base": "t_uint64"
            },
            "t_bytes_storage": {
                "encoding": "bytes",
                "label": "bytes",
                "numberOfBytes": "32"
            },
            "t_enum(BatchStatus)18361": {
                "encoding": "inplace",
                "label": "enum BatchStatus",
                "numberOfBytes": "1"
            },
            "t_enum(RecordType)18328": {
                "encoding": "inplace",
                "label": "enum RecordType",
                "numberOfBytes": "1"
            },
            "t_enum(UnbondingBatchStatus)18382": {
                "encoding": "inplace",
                "label": "enum UnbondingBatchStatus",
                "numberOfBytes": "1"
            },
            "t_mapping(t_uint32,t_array(t_uint32)dyn_storage)": {
                "encoding": "mapping",
                "key": "t_uint32",
                "label": "mapping(uint32 => uint32[])",
                "numberOfBytes": "32",
                "value": "t_array(t_uint32)dyn_storage"
            },
            "t_mapping(t_uint32,t_array(t_uint64)dyn_storage)": {
                "encoding": "mapping",
                "key": "t_uint32",
                "label": "mapping(uint32 => uint64[])",
                "numberOfBytes": "32",
                "value": "t_array(t_uint64)dyn_storage"
            },
            "t_mapping(t_uint32,t_struct(HubBatch)18375_storage)": {
                "encoding": "mapping",
                "key": "t_uint32",
                "label": "mapping(uint32 => struct HubBatch)",
                "numberOfBytes": "32",
                "value": "t_struct(HubBatch)18375_storage"
            },
            "t_mapping(t_uint32,t_struct(Ucs03Channel)18325_storage)": {
                "encoding": "mapping",
                "key": "t_uint32",
                "label": "mapping(uint32 => struct Ucs03Channel)",
                "numberOfBytes": "32",
                "value": "t_struct(Ucs03Channel)18325_storage"
            },
            "t_mapping(t_uint32,t_struct(UnbondingBatch)18396_storage)": {
                "encoding": "mapping",
                "key": "t_uint32",
                "label": "mapping(uint32 => struct UnbondingBatch)",
                "numberOfBytes": "32",
                "value": "t_struct(UnbondingBatch)18396_storage"
            },
            "t_mapping(t_uint64,t_struct(HubRecord)18356_storage)": {
                "encoding": "mapping",
                "key": "t_uint64",
                "label": "mapping(uint64 => struct HubRecord)",
                "numberOfBytes": "32",
                "value": "t_struct(HubRecord)18356_storage"
            },
            "t_mapping(t_uint64,t_uint256)": {
                "encoding": "mapping",
                "key": "t_uint64",
                "label": "mapping(uint64 => uint256)",
                "numberOfBytes": "32",
                "value": "t_uint256"
            },
            "t_string_storage": {
                "encoding": "bytes",
                "label": "string",
                "numberOfBytes": "32"
            },
            "t_struct(Config)18318_storage": {
                "encoding": "inplace",
                "label": "struct Config",
                "numberOfBytes": "320",
                "members": [
                    {
                        "astId": 18299,
                        "contract": "src/Lst.sol:Lst",
                        "label": "feeRate",
                        "offset": 0,
                        "slot": "0",
                        "type": "t_uint256"
                    },
                    {
                        "astId": 18301,
                        "contract": "src/Lst.sol:Lst",
                        "label": "zkgm",
                        "offset": 0,
                        "slot": "1",
                        "type": "t_address"
                    },
                    {
                        "astId": 18303,
                        "contract": "src/Lst.sol:Lst",
                        "label": "lsToken",
                        "offset": 0,
                        "slot": "2",
                        "type": "t_address"
                    },
                    {
                        "astId": 18305,
                        "contract": "src/Lst.sol:Lst",
                        "label": "baseToken",
                        "offset": 0,
                        "slot": "3",
                        "type": "t_address"
                    },
                    {
                        "astId": 18307,
                        "contract": "src/Lst.sol:Lst",
                        "label": "feeReceiver",
                        "offset": 0,
                        "slot": "4",
                        "type": "t_address"
                    },
                    {
                        "astId": 18309,
                        "contract": "src/Lst.sol:Lst",
                        "label": "baseTokenSymbol",
                        "offset": 0,
                        "slot": "5",
                        "type": "t_string_storage"
                    },
                    {
                        "astId": 18311,
                        "contract": "src/Lst.sol:Lst",
                        "label": "baseTokenName",
                        "offset": 0,
                        "slot": "6",
                        "type": "t_string_storage"
                    },
                    {
                        "astId": 18313,
                        "contract": "src/Lst.sol:Lst",
                        "label": "unionSolverAddress",
                        "offset": 0,
                        "slot": "7",
                        "type": "t_string_storage"
                    },
                    {
                        "astId": 18315,
                        "contract": "src/Lst.sol:Lst",
                        "label": "unionLstContractAddress",
                        "offset": 0,
                        "slot": "8",
                        "type": "t_string_storage"
                    },
                    {
                        "astId": 18317,
                        "contract": "src/Lst.sol:Lst",
                        "label": "unionChannelId",
                        "offset": 0,
                        "slot": "9",
                        "type": "t_uint32"
                    }
                ]
            },
            "t_struct(HubBatch)18375_storage": {
                "encoding": "inplace",
                "label": "struct HubBatch",
                "numberOfBytes": "160",
                "members": [
                    {
                        "astId": 18363,
                        "contract": "src/Lst.sol:Lst",
                        "label": "stakeAmount",
                        "offset": 0,
                        "slot": "0",
                        "type": "t_uint256"
                    },
                    {
                        "astId": 18365,
                        "contract": "src/Lst.sol:Lst",
                        "label": "mintAmount",
                        "offset": 0,
                        "slot": "1",
                        "type": "t_uint256"
                    },
                    {
                        "astId": 18367,
                        "contract": "src/Lst.sol:Lst",
                        "label": "unstakeAmount",
                        "offset": 0,
                        "slot": "2",
                        "type": "t_uint256"
                    },
                    {
                        "astId": 18369,
                        "contract": "src/Lst.sol:Lst",
                        "label": "releasedAmount",
                        "offset": 0,
                        "slot": "3",
                        "type": "t_uint256"
                    },
                    {
                        "astId": 18371,
                        "contract": "src/Lst.sol:Lst",
                        "label": "id",
                        "offset": 0,
                        "slot": "4",
                        "type": "t_uint32"
                    },
                    {
                        "astId": 18374,
                        "contract": "src/Lst.sol:Lst",
                        "label": "status",
                        "offset": 4,
                        "slot": "4",
                        "type": "t_enum(BatchStatus)18361"
                    }
                ]
            },
            "t_struct(HubRecord)18356_storage": {
                "encoding": "inplace",
                "label": "struct HubRecord",
                "numberOfBytes": "320",
                "members": [
                    {
                        "astId": 18331,
                        "contract": "src/Lst.sol:Lst",
                        "label": "recordType",
                        "offset": 0,
                        "slot": "0",
                        "type": "t_enum(RecordType)18328"
                    },
                    {
                        "astId": 18333,
                        "contract": "src/Lst.sol:Lst",
                        "label": "batchId",
                        "offset": 1,
                        "slot": "0",
                        "type": "t_uint32"
                    },
                    {
                        "astId": 18335,
                        "contract": "src/Lst.sol:Lst",
                        "label": "id",
                        "offset": 5,
                        "slot": "0",
                        "type": "t_uint64"
                    },
                    {
                        "astId": 18337,
                        "contract": "src/Lst.sol:Lst",
                        "label": "recipientChannelId",
                        "offset": 13,
                        "slot": "0",
                        "type": "t_uint32"
                    },
                    {
                        "astId": 18339,
                        "contract": "src/Lst.sol:Lst",
                        "label": "stakeAmount",
                        "offset": 0,
                        "slot": "1",
                        "type": "t_uint256"
                    },
                    {
                        "astId": 18341,
                        "contract": "src/Lst.sol:Lst",
                        "label": "mintAmount",
                        "offset": 0,
                        "slot": "2",
                        "type": "t_uint256"
                    },
                    {
                        "astId": 18343,
                        "contract": "src/Lst.sol:Lst",
                        "label": "unstakeAmount",
                        "offset": 0,
                        "slot": "3",
                        "type": "t_uint256"
                    },
                    {
                        "astId": 18345,
                        "contract": "src/Lst.sol:Lst",
                        "label": "releasedAmount",
                        "offset": 0,
                        "slot": "4",
                        "type": "t_uint256"
                    },
                    {
                        "astId": 18347,
                        "contract": "src/Lst.sol:Lst",
                        "label": "exchangeRate",
                        "offset": 0,
                        "slot": "5",
                        "type": "t_uint256"
                    },
                    {
                        "astId": 18349,
                        "contract": "src/Lst.sol:Lst",
                        "label": "timestamp",
                        "offset": 0,
                        "slot": "6",
                        "type": "t_uint64"
                    },
                    {
                        "astId": 18351,
                        "contract": "src/Lst.sol:Lst",
                        "label": "sender",
                        "offset": 0,
                        "slot": "7",
                        "type": "t_bytes_storage"
                    },
                    {
                        "astId": 18353,
                        "contract": "src/Lst.sol:Lst",
                        "label": "staker",
                        "offset": 0,
                        "slot": "8",
                        "type": "t_bytes_storage"
                    },
                    {
                        "astId": 18355,
                        "contract": "src/Lst.sol:Lst",
                        "label": "recipient",
                        "offset": 0,
                        "slot": "9",
                        "type": "t_bytes_storage"
                    }
                ]
            },
            "t_struct(Ucs03Channel)18325_storage": {
                "encoding": "inplace",
                "label": "struct Ucs03Channel",
                "numberOfBytes": "96",
                "members": [
                    {
                        "astId": 18320,
                        "contract": "src/Lst.sol:Lst",
                        "label": "quoteToken",
                        "offset": 0,
                        "slot": "0",
                        "type": "t_bytes_storage"
                    },
                    {
                        "astId": 18322,
                        "contract": "src/Lst.sol:Lst",
                        "label": "lstQuoteToken",
                        "offset": 0,
                        "slot": "1",
                        "type": "t_bytes_storage"
                    },
                    {
                        "astId": 18324,
                        "contract": "src/Lst.sol:Lst",
                        "label": "channelId",
                        "offset": 0,
                        "slot": "2",
                        "type": "t_uint32"
                    }
                ]
            },
            "t_struct(UnbondingBatch)18396_storage": {
                "encoding": "inplace",
                "label": "struct UnbondingBatch",
                "numberOfBytes": "160",
                "members": [
                    {
                        "astId": 18384,
                        "contract": "src/Lst.sol:Lst",
                        "label": "unstakeAmount",
                        "offset": 0,
                        "slot": "0",
                        "type": "t_uint256"
                    },
                    {
                        "astId": 18386,
                        "contract": "src/Lst.sol:Lst",
                        "label": "exchangeRate",
                        "offset": 0,
                        "slot": "1",
                        "type": "t_uint256"
                    },
                    {
                        "astId": 18388,
                        "contract": "src/Lst.sol:Lst",
                        "label": "undelegateAmount",
                        "offset": 0,
                        "slot": "2",
                        "type": "t_uint256"
                    },
                    {
                        "astId": 18390,
                        "contract": "src/Lst.sol:Lst",
                        "label": "receivedAmount",
                        "offset": 0,
                        "slot": "3",
                        "type": "t_uint256"
                    },
                    {
                        "astId": 18393,
                        "contract": "src/Lst.sol:Lst",
                        "label": "status",
                        "offset": 0,
                        "slot": "4",
                        "type": "t_enum(UnbondingBatchStatus)18382"
                    },
                    {
                        "astId": 18395,
                        "contract": "src/Lst.sol:Lst",
                        "label": "id",
                        "offset": 1,
                        "slot": "4",
                        "type": "t_uint32"
                    }
                ]
            },
            "t_uint256": {
                "encoding": "inplace",
                "label": "uint256",
                "numberOfBytes": "32"
            },
            "t_uint32": {
                "encoding": "inplace",
                "label": "uint32",
                "numberOfBytes": "4"
            },
            "t_uint64": {
                "encoding": "inplace",
                "label": "uint64",
                "numberOfBytes": "8"
            }
        }
    },
    "id": 59
}